{
  "_format": "hh-sol-artifact-1",
  "contractName": "WebsiteContract",
  "sourceName": "contracts/WebsiteContract.sol",
  "abi": [
    {
      "inputs": [
        {
          "internalType": "string",
          "name": "_name",
          "type": "string"
        },
        {
          "internalType": "string",
          "name": "_symbol",
          "type": "string"
        }
      ],
      "stateMutability": "nonpayable",
      "type": "constructor"
    },
    {
      "anonymous": false,
      "inputs": [
        {
          "indexed": false,
          "internalType": "address",
          "name": "buyer",
          "type": "address"
        },
        {
          "indexed": false,
          "internalType": "uint256",
          "name": "tokenReceived",
          "type": "uint256"
        },
        {
          "indexed": false,
          "internalType": "uint256",
          "name": "ethersSent",
          "type": "uint256"
        }
      ],
      "name": "SomebodyBuy",
      "type": "event"
    },
    {
      "anonymous": false,
      "inputs": [
        {
          "indexed": false,
          "internalType": "address",
          "name": "sender",
          "type": "address"
        },
        {
          "indexed": false,
          "internalType": "string",
          "name": "message",
          "type": "string"
        },
        {
          "indexed": false,
          "internalType": "uint256",
          "name": "timestamp",
          "type": "uint256"
        }
      ],
      "name": "SomebodySayHello",
      "type": "event"
    },
    {
      "anonymous": false,
      "inputs": [
        {
          "indexed": false,
          "internalType": "address",
          "name": "sender",
          "type": "address"
        },
        {
          "indexed": false,
          "internalType": "bool",
          "name": "state",
          "type": "bool"
        }
      ],
      "name": "SomebodyWonTokens",
      "type": "event"
    },
    {
      "inputs": [
        {
          "internalType": "address",
          "name": "",
          "type": "address"
        }
      ],
      "name": "balanceOf",
      "outputs": [
        {
          "internalType": "uint256",
          "name": "",
          "type": "uint256"
        }
      ],
      "stateMutability": "view",
      "type": "function"
    },
    {
      "inputs": [],
      "name": "buyToken",
      "outputs": [],
      "stateMutability": "payable",
      "type": "function"
    },
    {
      "inputs": [],
      "name": "getAllHello",
      "outputs": [
        {
          "components": [
            {
              "internalType": "address",
              "name": "sender",
              "type": "address"
            },
            {
              "internalType": "string",
              "name": "message",
              "type": "string"
            },
            {
              "internalType": "uint256",
              "name": "timestamp",
              "type": "uint256"
            }
          ],
          "internalType": "struct WebsiteContract.Hello[]",
          "name": "",
          "type": "tuple[]"
        }
      ],
      "stateMutability": "view",
      "type": "function"
    },
    {
      "inputs": [],
      "name": "getHelloTotal",
      "outputs": [
        {
          "internalType": "uint256",
          "name": "",
          "type": "uint256"
        }
      ],
      "stateMutability": "view",
      "type": "function"
    },
    {
      "inputs": [],
      "name": "name",
      "outputs": [
        {
          "internalType": "string",
          "name": "",
          "type": "string"
        }
      ],
      "stateMutability": "view",
      "type": "function"
    },
    {
      "inputs": [
        {
          "internalType": "string",
          "name": "message",
          "type": "string"
        }
      ],
      "name": "sendHello",
      "outputs": [],
      "stateMutability": "nonpayable",
      "type": "function"
    },
    {
      "inputs": [],
      "name": "symbol",
      "outputs": [
        {
          "internalType": "string",
          "name": "",
          "type": "string"
        }
      ],
      "stateMutability": "view",
      "type": "function"
    },
    {
      "inputs": [],
      "name": "totalHello",
      "outputs": [
        {
          "internalType": "uint256",
          "name": "",
          "type": "uint256"
        }
      ],
      "stateMutability": "view",
      "type": "function"
    },
    {
      "inputs": [],
      "name": "totalSupply",
      "outputs": [
        {
          "internalType": "uint256",
          "name": "",
          "type": "uint256"
        }
      ],
      "stateMutability": "view",
      "type": "function"
    },
    {
      "inputs": [
        {
          "internalType": "address",
          "name": "recipient",
          "type": "address"
        },
        {
          "internalType": "uint256",
          "name": "amount",
          "type": "uint256"
        }
      ],
      "name": "transfer",
      "outputs": [
        {
          "internalType": "bool",
          "name": "",
          "type": "bool"
        }
      ],
      "stateMutability": "nonpayable",
      "type": "function"
    },
    {
      "inputs": [
        {
          "internalType": "address",
          "name": "caller",
          "type": "address"
        }
      ],
      "name": "viewTokenFromAddress",
      "outputs": [
        {
          "internalType": "uint256",
          "name": "",
          "type": "uint256"
        }
      ],
      "stateMutability": "view",
      "type": "function"
    }
  ],
  "bytecode": "0x60806040523480156200001157600080fd5b50604051620021de380380620021de83398181016040528101906200003791906200035d565b81600290816200004891906200062d565b5080600390816200005a91906200062d565b50620000773369d3c21bcecceda1000000620000e260201b60201c565b6064424462000087919062000743565b620000939190620007ad565b60018190555033600560006101000a81548173ffffffffffffffffffffffffffffffffffffffff021916908373ffffffffffffffffffffffffffffffffffffffff160217905550505062000868565b600073ffffffffffffffffffffffffffffffffffffffff168273ffffffffffffffffffffffffffffffffffffffff160362000154576040517f08c379a00000000000000000000000000000000000000000000000000000000081526004016200014b9062000846565b60405180910390fd5b8060008082825462000167919062000743565b9250508190555080600660008473ffffffffffffffffffffffffffffffffffffffff1673ffffffffffffffffffffffffffffffffffffffff1681526020019081526020016000206000828254620001bf919062000743565b925050819055505050565b6000604051905090565b600080fd5b600080fd5b600080fd5b600080fd5b6000601f19601f8301169050919050565b7f4e487b7100000000000000000000000000000000000000000000000000000000600052604160045260246000fd5b6200023382620001e8565b810181811067ffffffffffffffff82111715620002555762000254620001f9565b5b80604052505050565b60006200026a620001ca565b905062000278828262000228565b919050565b600067ffffffffffffffff8211156200029b576200029a620001f9565b5b620002a682620001e8565b9050602081019050919050565b60005b83811015620002d3578082015181840152602081019050620002b6565b60008484015250505050565b6000620002f6620002f0846200027d565b6200025e565b905082815260208101848484011115620003155762000314620001e3565b5b62000322848285620002b3565b509392505050565b600082601f830112620003425762000341620001de565b5b815162000354848260208601620002df565b91505092915050565b60008060408385031215620003775762000376620001d4565b5b600083015167ffffffffffffffff811115620003985762000397620001d9565b5b620003a6858286016200032a565b925050602083015167ffffffffffffffff811115620003ca57620003c9620001d9565b5b620003d8858286016200032a565b9150509250929050565b600081519050919050565b7f4e487b7100000000000000000000000000000000000000000000000000000000600052602260045260246000fd5b600060028204905060018216806200043557607f821691505b6020821081036200044b576200044a620003ed565b5b50919050565b60008190508160005260206000209050919050565b60006020601f8301049050919050565b600082821b905092915050565b600060088302620004b57fffffffffffffffffffffffffffffffffffffffffffffffffffffffffffffffff8262000476565b620004c1868362000476565b95508019841693508086168417925050509392505050565b6000819050919050565b6000819050919050565b60006200050e620005086200050284620004d9565b620004e3565b620004d9565b9050919050565b6000819050919050565b6200052a83620004ed565b62000542620005398262000515565b84845462000483565b825550505050565b600090565b620005596200054a565b620005668184846200051f565b505050565b5b818110156200058e57620005826000826200054f565b6001810190506200056c565b5050565b601f821115620005dd57620005a78162000451565b620005b28462000466565b81016020851015620005c2578190505b620005da620005d18562000466565b8301826200056b565b50505b505050565b600082821c905092915050565b60006200060260001984600802620005e2565b1980831691505092915050565b60006200061d8383620005ef565b9150826002028217905092915050565b6200063882620003e2565b67ffffffffffffffff811115620006545762000653620001f9565b5b6200066082546200041c565b6200066d82828562000592565b600060209050601f831160018114620006a5576000841562000690578287015190505b6200069c85826200060f565b8655506200070c565b601f198416620006b58662000451565b60005b82811015620006df57848901518255600182019150602085019450602081019050620006b8565b86831015620006ff5784890151620006fb601f891682620005ef565b8355505b6001600288020188555050505b505050505050565b7f4e487b7100000000000000000000000000000000000000000000000000000000600052601160045260246000fd5b60006200075082620004d9565b91506200075d83620004d9565b925082820190508082111562000778576200077762000714565b5b92915050565b7f4e487b7100000000000000000000000000000000000000000000000000000000600052601260045260246000fd5b6000620007ba82620004d9565b9150620007c783620004d9565b925082620007da57620007d96200077e565b5b828206905092915050565b600082825260208201905092915050565b7f4552433230204552523a204e6f204164647265737320466f756e640000000000600082015250565b60006200082e601b83620007e5565b91506200083b82620007f6565b602082019050919050565b6000602082019050818103600083015262000861816200081f565b9050919050565b61196680620008786000396000f3fe60806040526004361061009c5760003560e01c806395d89b411161006457806395d89b4114610188578063a4821719146101b3578063a9059cbb146101bd578063eb59895d146101fa578063f380badf14610225578063f9ad6bef146102505761009c565b806306fdde03146100a157806318160ddd146100cc578063379b368e146100f757806370a082311461012257806391a8983e1461015f575b600080fd5b3480156100ad57600080fd5b506100b661028d565b6040516100c39190610d50565b60405180910390f35b3480156100d857600080fd5b506100e161031b565b6040516100ee9190610d8b565b60405180910390f35b34801561010357600080fd5b5061010c610321565b6040516101199190610f52565b60405180910390f35b34801561012e57600080fd5b5061014960048036038101906101449190610fb4565b610472565b6040516101569190610d8b565b60405180910390f35b34801561016b57600080fd5b5061018660048036038101906101819190611116565b61048a565b005b34801561019457600080fd5b5061019d6107b2565b6040516101aa9190610d50565b60405180910390f35b6101bb610840565b005b3480156101c957600080fd5b506101e460048036038101906101df919061118b565b6109fe565b6040516101f191906111e6565b60405180910390f35b34801561020657600080fd5b5061020f610ba5565b60405161021c9190610d8b565b60405180910390f35b34801561023157600080fd5b5061023a610baf565b6040516102479190610d8b565b60405180910390f35b34801561025c57600080fd5b5061027760048036038101906102729190610fb4565b610bb5565b6040516102849190610d8b565b60405180910390f35b6002805461029a90611230565b80601f01602080910402602001604051908101604052809291908181526020018280546102c690611230565b80156103135780601f106102e857610100808354040283529160200191610313565b820191906000526020600020905b8154815290600101906020018083116102f657829003601f168201915b505050505081565b60005481565b60606007805480602002602001604051908101604052809291908181526020016000905b8282101561046957838290600052602060002090600302016040518060600160405290816000820160009054906101000a900473ffffffffffffffffffffffffffffffffffffffff1673ffffffffffffffffffffffffffffffffffffffff1673ffffffffffffffffffffffffffffffffffffffff1681526020016001820180546103ce90611230565b80601f01602080910402602001604051908101604052809291908181526020018280546103fa90611230565b80156104475780601f1061041c57610100808354040283529160200191610447565b820191906000526020600020905b81548152906001019060200180831161042a57829003601f168201915b5050505050815260200160028201548152505081526020019060010190610345565b50505050905090565b60066020528060005260406000206000915090505481565b6004600081548092919061049d90611290565b91905055506000816040516020016104b5919061133a565b6040516020818303038152906040529050600760405180606001604052803373ffffffffffffffffffffffffffffffffffffffff16815260200183815260200142815250908060018154018082558091505060019003906000526020600020906003020160009091909190915060008201518160000160006101000a81548173ffffffffffffffffffffffffffffffffffffffff021916908373ffffffffffffffffffffffffffffffffffffffff160217905550602082015181600101908161057e919061150c565b506040820151816002015550506064600154424461059c91906115de565b6105a691906115de565b6105b09190611641565b6001819055507f2415c1e7df5e0c67b640ba9a06b6cd4e0e1769bf0c51c0bc0f04eb84125d70743383426040516105e993929190611681565b60405180910390a1600a60015410156107355761063a6040518060400160405280600381526020017f57494e0000000000000000000000000000000000000000000000000000000000815250610bfe565b678ac7230489e80000600660003373ffffffffffffffffffffffffffffffffffffffff1673ffffffffffffffffffffffffffffffffffffffff168152602001908152602001600020600082825461069191906115de565b92505081905550678ac7230489e800006000808282546106b191906116bf565b925050819055507ff70494b7572e1eaeaea5b544612651ccc80fd1b05e3f0026253ae98fb8d82fd83360016040516106ea9291906116f3565b60405180910390a16107306040518060400160405280600581526020017f4920574f4e000000000000000000000000000000000000000000000000000000815250610bfe565b6107ae565b7ff70494b7572e1eaeaea5b544612651ccc80fd1b05e3f0026253ae98fb8d82fd83360006040516107679291906116f3565b60405180910390a16107ad6040518060400160405280600681526020017f49204c6f73650000000000000000000000000000000000000000000000000000815250610bfe565b5b5050565b600380546107bf90611230565b80601f01602080910402602001604051908101604052809291908181526020018280546107eb90611230565b80156108385780601f1061080d57610100808354040283529160200191610838565b820191906000526020600020905b81548152906001019060200180831161081b57829003601f168201915b505050505081565b60003490506512309ce5400081101561088e576040517f08c379a00000000000000000000000000000000000000000000000000000000081526004016108859061178e565b60405180910390fd5b60006509184e72a000826108a291906117ae565b9050678ac7230489e80000816108b891906117df565b600660003373ffffffffffffffffffffffffffffffffffffffff1673ffffffffffffffffffffffffffffffffffffffff168152602001908152602001600020600082825461090691906115de565b92505081905550678ac7230489e800008161092191906117df565b60005461092e91906116bf565b600081905550678ac7230489e800008161094891906117df565b60066000600560009054906101000a900473ffffffffffffffffffffffffffffffffffffffff1673ffffffffffffffffffffffffffffffffffffffff1673ffffffffffffffffffffffffffffffffffffffff16815260200190815260200160002060008282546109b891906116bf565b925050819055507fac60c63f10552ab7251fef86507213108176060f7d5f20af51d3aeda100b3f983382346040516109f293929190611821565b60405180910390a15050565b60008073ffffffffffffffffffffffffffffffffffffffff168373ffffffffffffffffffffffffffffffffffffffff1603610a6e576040517f08c379a0000000000000000000000000000000000000000000000000000000008152600401610a65906118a4565b60405180910390fd5b6000600660003373ffffffffffffffffffffffffffffffffffffffff1673ffffffffffffffffffffffffffffffffffffffff16815260200190815260200160002054905082811015610af5576040517f08c379a0000000000000000000000000000000000000000000000000000000008152600401610aec90611910565b60405180910390fd5b8281610b0191906116bf565b600660003373ffffffffffffffffffffffffffffffffffffffff1673ffffffffffffffffffffffffffffffffffffffff1681526020019081526020016000208190555082600660008673ffffffffffffffffffffffffffffffffffffffff1673ffffffffffffffffffffffffffffffffffffffff1681526020019081526020016000206000828254610b9391906115de565b92505081905550600191505092915050565b6000600454905090565b60045481565b6000600660008373ffffffffffffffffffffffffffffffffffffffff1673ffffffffffffffffffffffffffffffffffffffff168152602001908152602001600020549050919050565b610c9481604051602401610c129190610d50565b6040516020818303038152906040527f41304fac000000000000000000000000000000000000000000000000000000007bffffffffffffffffffffffffffffffffffffffffffffffffffffffff19166020820180517bffffffffffffffffffffffffffffffffffffffffffffffffffffffff8381831617835250505050610c97565b50565b60008151905060006a636f6e736f6c652e6c6f679050602083016000808483855afa5050505050565b600081519050919050565b600082825260208201905092915050565b60005b83811015610cfa578082015181840152602081019050610cdf565b60008484015250505050565b6000601f19601f8301169050919050565b6000610d2282610cc0565b610d2c8185610ccb565b9350610d3c818560208601610cdc565b610d4581610d06565b840191505092915050565b60006020820190508181036000830152610d6a8184610d17565b905092915050565b6000819050919050565b610d8581610d72565b82525050565b6000602082019050610da06000830184610d7c565b92915050565b600081519050919050565b600082825260208201905092915050565b6000819050602082019050919050565b600073ffffffffffffffffffffffffffffffffffffffff82169050919050565b6000610dfd82610dd2565b9050919050565b610e0d81610df2565b82525050565b600082825260208201905092915050565b6000610e2f82610cc0565b610e398185610e13565b9350610e49818560208601610cdc565b610e5281610d06565b840191505092915050565b610e6681610d72565b82525050565b6000606083016000830151610e846000860182610e04565b5060208301518482036020860152610e9c8282610e24565b9150506040830151610eb16040860182610e5d565b508091505092915050565b6000610ec88383610e6c565b905092915050565b6000602082019050919050565b6000610ee882610da6565b610ef28185610db1565b935083602082028501610f0485610dc2565b8060005b85811015610f405784840389528151610f218582610ebc565b9450610f2c83610ed0565b925060208a01995050600181019050610f08565b50829750879550505050505092915050565b60006020820190508181036000830152610f6c8184610edd565b905092915050565b6000604051905090565b600080fd5b600080fd5b610f9181610df2565b8114610f9c57600080fd5b50565b600081359050610fae81610f88565b92915050565b600060208284031215610fca57610fc9610f7e565b5b6000610fd884828501610f9f565b91505092915050565b600080fd5b600080fd5b7f4e487b7100000000000000000000000000000000000000000000000000000000600052604160045260246000fd5b61102382610d06565b810181811067ffffffffffffffff8211171561104257611041610feb565b5b80604052505050565b6000611055610f74565b9050611061828261101a565b919050565b600067ffffffffffffffff82111561108157611080610feb565b5b61108a82610d06565b9050602081019050919050565b82818337600083830152505050565b60006110b96110b484611066565b61104b565b9050828152602081018484840111156110d5576110d4610fe6565b5b6110e0848285611097565b509392505050565b600082601f8301126110fd576110fc610fe1565b5b813561110d8482602086016110a6565b91505092915050565b60006020828403121561112c5761112b610f7e565b5b600082013567ffffffffffffffff81111561114a57611149610f83565b5b611156848285016110e8565b91505092915050565b61116881610d72565b811461117357600080fd5b50565b6000813590506111858161115f565b92915050565b600080604083850312156111a2576111a1610f7e565b5b60006111b085828601610f9f565b92505060206111c185828601611176565b9150509250929050565b60008115159050919050565b6111e0816111cb565b82525050565b60006020820190506111fb60008301846111d7565b92915050565b7f4e487b7100000000000000000000000000000000000000000000000000000000600052602260045260246000fd5b6000600282049050600182168061124857607f821691505b60208210810361125b5761125a611201565b5b50919050565b7f4e487b7100000000000000000000000000000000000000000000000000000000600052601160045260246000fd5b600061129b82610d72565b91507fffffffffffffffffffffffffffffffffffffffffffffffffffffffffffffffff82036112cd576112cc611261565b5b600182019050919050565b7f48656c6c6f3a2000000000000000000000000000000000000000000000000000815250565b600081905092915050565b600061131482610cc0565b61131e81856112fe565b935061132e818560208601610cdc565b80840191505092915050565b6000611345826112d8565b6007820191506113558284611309565b915081905092915050565b60008190508160005260206000209050919050565b60006020601f8301049050919050565b600082821b905092915050565b6000600883026113c27fffffffffffffffffffffffffffffffffffffffffffffffffffffffffffffffff82611385565b6113cc8683611385565b95508019841693508086168417925050509392505050565b6000819050919050565b60006114096114046113ff84610d72565b6113e4565b610d72565b9050919050565b6000819050919050565b611423836113ee565b61143761142f82611410565b848454611392565b825550505050565b600090565b61144c61143f565b61145781848461141a565b505050565b5b8181101561147b57611470600082611444565b60018101905061145d565b5050565b601f8211156114c05761149181611360565b61149a84611375565b810160208510156114a9578190505b6114bd6114b585611375565b83018261145c565b50505b505050565b600082821c905092915050565b60006114e3600019846008026114c5565b1980831691505092915050565b60006114fc83836114d2565b9150826002028217905092915050565b61151582610cc0565b67ffffffffffffffff81111561152e5761152d610feb565b5b6115388254611230565b61154382828561147f565b600060209050601f8311600181146115765760008415611564578287015190505b61156e85826114f0565b8655506115d6565b601f19841661158486611360565b60005b828110156115ac57848901518255600182019150602085019450602081019050611587565b868310156115c957848901516115c5601f8916826114d2565b8355505b6001600288020188555050505b505050505050565b60006115e982610d72565b91506115f483610d72565b925082820190508082111561160c5761160b611261565b5b92915050565b7f4e487b7100000000000000000000000000000000000000000000000000000000600052601260045260246000fd5b600061164c82610d72565b915061165783610d72565b92508261166757611666611612565b5b828206905092915050565b61167b81610df2565b82525050565b60006060820190506116966000830186611672565b81810360208301526116a88185610d17565b90506116b76040830184610d7c565b949350505050565b60006116ca82610d72565b91506116d583610d72565b92508282039050818111156116ed576116ec611261565b5b92915050565b60006040820190506117086000830185611672565b61171560208301846111d7565b9392505050565b7f42757920546f6b656e204661696c65643a204d696e696d756d20416d6f756e7460008201527f20697320302e3030303032204554480000000000000000000000000000000000602082015250565b6000611778602f83610ccb565b91506117838261171c565b604082019050919050565b600060208201905081810360008301526117a78161176b565b9050919050565b60006117b982610d72565b91506117c483610d72565b9250826117d4576117d3611612565b5b828204905092915050565b60006117ea82610d72565b91506117f583610d72565b925082820261180381610d72565b9150828204841483151761181a57611819611261565b5b5092915050565b60006060820190506118366000830186611672565b6118436020830185610d7c565b6118506040830184610d7c565b949350505050565b7f4552433230204552523a20466f756e64205a65726f2041646472657373000000600082015250565b600061188e601d83610ccb565b915061189982611858565b602082019050919050565b600060208201905081810360008301526118bd81611881565b9050919050565b7f4552433230204552523a204e6f7420456e6f7567682042616c616e6365000000600082015250565b60006118fa601d83610ccb565b9150611905826118c4565b602082019050919050565b60006020820190508181036000830152611929816118ed565b905091905056fea2646970667358221220d4c1ddf7072613c55ce919555d2cf96a9f03cdec35b384153b54a2172b45249664736f6c63430008110033",
  "linkReferences": {},
  "deployedLinkReferences": {}
}