{
  "_format": "hh-sol-artifact-1",
  "contractName": "WebsiteContract",
  "sourceName": "contracts/WebsiteContract.sol",
  "abi": [
    {
      "inputs": [
        {
          "internalType": "string",
          "name": "_name",
          "type": "string"
        },
        {
          "internalType": "string",
          "name": "_symbol",
          "type": "string"
        }
      ],
      "stateMutability": "nonpayable",
      "type": "constructor"
    },
    {
      "anonymous": false,
      "inputs": [
        {
          "indexed": false,
          "internalType": "address",
          "name": "buyer",
          "type": "address"
        },
        {
          "indexed": false,
          "internalType": "uint256",
          "name": "tokenReceived",
          "type": "uint256"
        },
        {
          "indexed": false,
          "internalType": "uint256",
          "name": "ethersSent",
          "type": "uint256"
        }
      ],
      "name": "SomebodyBuy",
      "type": "event"
    },
    {
      "anonymous": false,
      "inputs": [
        {
          "indexed": false,
          "internalType": "address",
          "name": "sender",
          "type": "address"
        },
        {
          "indexed": false,
          "internalType": "bool",
          "name": "success",
          "type": "bool"
        }
      ],
      "name": "SomebodyExchange",
      "type": "event"
    },
    {
      "anonymous": false,
      "inputs": [
        {
          "indexed": false,
          "internalType": "address",
          "name": "sender",
          "type": "address"
        },
        {
          "indexed": false,
          "internalType": "string",
          "name": "message",
          "type": "string"
        },
        {
          "indexed": false,
          "internalType": "uint256",
          "name": "timestamp",
          "type": "uint256"
        }
      ],
      "name": "SomebodySayHello",
      "type": "event"
    },
    {
      "anonymous": false,
      "inputs": [
        {
          "indexed": false,
          "internalType": "address",
          "name": "sender",
          "type": "address"
        },
        {
          "indexed": false,
          "internalType": "bool",
          "name": "state",
          "type": "bool"
        }
      ],
      "name": "SomebodyWonTokens",
      "type": "event"
    },
    {
      "inputs": [
        {
          "internalType": "address",
          "name": "",
          "type": "address"
        }
      ],
      "name": "balanceOf",
      "outputs": [
        {
          "internalType": "uint256",
          "name": "",
          "type": "uint256"
        }
      ],
      "stateMutability": "view",
      "type": "function"
    },
    {
      "inputs": [],
      "name": "buyToken",
      "outputs": [],
      "stateMutability": "payable",
      "type": "function"
    },
    {
      "inputs": [
        {
          "internalType": "uint256",
          "name": "amount",
          "type": "uint256"
        }
      ],
      "name": "directGetToken",
      "outputs": [],
      "stateMutability": "nonpayable",
      "type": "function"
    },
    {
      "inputs": [],
      "name": "getAllHello",
      "outputs": [
        {
          "components": [
            {
              "internalType": "address",
              "name": "sender",
              "type": "address"
            },
            {
              "internalType": "string",
              "name": "message",
              "type": "string"
            },
            {
              "internalType": "uint256",
              "name": "timestamp",
              "type": "uint256"
            },
            {
              "internalType": "bool",
              "name": "didWin",
              "type": "bool"
            }
          ],
          "internalType": "struct WebsiteContract.Hello[]",
          "name": "",
          "type": "tuple[]"
        }
      ],
      "stateMutability": "view",
      "type": "function"
    },
    {
      "inputs": [],
      "name": "getHelloTotal",
      "outputs": [
        {
          "internalType": "uint256",
          "name": "",
          "type": "uint256"
        }
      ],
      "stateMutability": "view",
      "type": "function"
    },
    {
      "inputs": [],
      "name": "name",
      "outputs": [
        {
          "internalType": "string",
          "name": "",
          "type": "string"
        }
      ],
      "stateMutability": "view",
      "type": "function"
    },
    {
      "inputs": [
        {
          "internalType": "string",
          "name": "message",
          "type": "string"
        }
      ],
      "name": "sendHello",
      "outputs": [],
      "stateMutability": "nonpayable",
      "type": "function"
    },
    {
      "inputs": [],
      "name": "symbol",
      "outputs": [
        {
          "internalType": "string",
          "name": "",
          "type": "string"
        }
      ],
      "stateMutability": "view",
      "type": "function"
    },
    {
      "inputs": [],
      "name": "totalHello",
      "outputs": [
        {
          "internalType": "uint256",
          "name": "",
          "type": "uint256"
        }
      ],
      "stateMutability": "view",
      "type": "function"
    },
    {
      "inputs": [],
      "name": "totalSupply",
      "outputs": [
        {
          "internalType": "uint256",
          "name": "",
          "type": "uint256"
        }
      ],
      "stateMutability": "view",
      "type": "function"
    },
    {
      "inputs": [
        {
          "internalType": "address",
          "name": "recipient",
          "type": "address"
        },
        {
          "internalType": "uint256",
          "name": "amount",
          "type": "uint256"
        }
      ],
      "name": "transfer",
      "outputs": [
        {
          "internalType": "bool",
          "name": "",
          "type": "bool"
        }
      ],
      "stateMutability": "nonpayable",
      "type": "function"
    },
    {
      "inputs": [
        {
          "internalType": "address",
          "name": "caller",
          "type": "address"
        }
      ],
      "name": "viewTokenFromAddress",
      "outputs": [
        {
          "internalType": "uint256",
          "name": "",
          "type": "uint256"
        }
      ],
      "stateMutability": "view",
      "type": "function"
    }
  ],
  "bytecode": "0x60806040523480156200001157600080fd5b50604051620022f2380380620022f283398181016040528101906200003791906200035f565b81600290816200004891906200062f565b5080600390816200005a91906200062f565b5062000079336b204fce5e3e25026110000000620000e460201b60201c565b6064424462000089919062000745565b620000959190620007af565b60018190555033600560006101000a81548173ffffffffffffffffffffffffffffffffffffffff021916908373ffffffffffffffffffffffffffffffffffffffff16021790555050506200086a565b600073ffffffffffffffffffffffffffffffffffffffff168273ffffffffffffffffffffffffffffffffffffffff160362000156576040517f08c379a00000000000000000000000000000000000000000000000000000000081526004016200014d9062000848565b60405180910390fd5b8060008082825462000169919062000745565b9250508190555080600660008473ffffffffffffffffffffffffffffffffffffffff1673ffffffffffffffffffffffffffffffffffffffff1681526020019081526020016000206000828254620001c1919062000745565b925050819055505050565b6000604051905090565b600080fd5b600080fd5b600080fd5b600080fd5b6000601f19601f8301169050919050565b7f4e487b7100000000000000000000000000000000000000000000000000000000600052604160045260246000fd5b6200023582620001ea565b810181811067ffffffffffffffff82111715620002575762000256620001fb565b5b80604052505050565b60006200026c620001cc565b90506200027a82826200022a565b919050565b600067ffffffffffffffff8211156200029d576200029c620001fb565b5b620002a882620001ea565b9050602081019050919050565b60005b83811015620002d5578082015181840152602081019050620002b8565b60008484015250505050565b6000620002f8620002f2846200027f565b62000260565b905082815260208101848484011115620003175762000316620001e5565b5b62000324848285620002b5565b509392505050565b600082601f830112620003445762000343620001e0565b5b815162000356848260208601620002e1565b91505092915050565b60008060408385031215620003795762000378620001d6565b5b600083015167ffffffffffffffff8111156200039a5762000399620001db565b5b620003a8858286016200032c565b925050602083015167ffffffffffffffff811115620003cc57620003cb620001db565b5b620003da858286016200032c565b9150509250929050565b600081519050919050565b7f4e487b7100000000000000000000000000000000000000000000000000000000600052602260045260246000fd5b600060028204905060018216806200043757607f821691505b6020821081036200044d576200044c620003ef565b5b50919050565b60008190508160005260206000209050919050565b60006020601f8301049050919050565b600082821b905092915050565b600060088302620004b77fffffffffffffffffffffffffffffffffffffffffffffffffffffffffffffffff8262000478565b620004c3868362000478565b95508019841693508086168417925050509392505050565b6000819050919050565b6000819050919050565b6000620005106200050a6200050484620004db565b620004e5565b620004db565b9050919050565b6000819050919050565b6200052c83620004ef565b620005446200053b8262000517565b84845462000485565b825550505050565b600090565b6200055b6200054c565b6200056881848462000521565b505050565b5b8181101562000590576200058460008262000551565b6001810190506200056e565b5050565b601f821115620005df57620005a98162000453565b620005b48462000468565b81016020851015620005c4578190505b620005dc620005d38562000468565b8301826200056d565b50505b505050565b600082821c905092915050565b60006200060460001984600802620005e4565b1980831691505092915050565b60006200061f8383620005f1565b9150826002028217905092915050565b6200063a82620003e4565b67ffffffffffffffff811115620006565762000655620001fb565b5b6200066282546200041e565b6200066f82828562000594565b600060209050601f831160018114620006a7576000841562000692578287015190505b6200069e858262000611565b8655506200070e565b601f198416620006b78662000453565b60005b82811015620006e157848901518255600182019150602085019450602081019050620006ba565b86831015620007015784890151620006fd601f891682620005f1565b8355505b6001600288020188555050505b505050505050565b7f4e487b7100000000000000000000000000000000000000000000000000000000600052601160045260246000fd5b60006200075282620004db565b91506200075f83620004db565b92508282019050808211156200077a576200077962000716565b5b92915050565b7f4e487b7100000000000000000000000000000000000000000000000000000000600052601260045260246000fd5b6000620007bc82620004db565b9150620007c983620004db565b925082620007dc57620007db62000780565b5b828206905092915050565b600082825260208201905092915050565b7f4552433230204552523a204e6f204164647265737320466f756e640000000000600082015250565b600062000830601b83620007e7565b91506200083d82620007f8565b602082019050919050565b60006020820190508181036000830152620008638162000821565b9050919050565b611a78806200087a6000396000f3fe6080604052600436106100a75760003560e01c80639bd389b8116100645780639bd389b8146101be578063a4821719146101e7578063a9059cbb146101f1578063eb59895d1461022e578063f380badf14610259578063f9ad6bef14610284576100a7565b806306fdde03146100ac57806318160ddd146100d7578063379b368e1461010257806370a082311461012d57806391a8983e1461016a57806395d89b4114610193575b600080fd5b3480156100b857600080fd5b506100c16102c1565b6040516100ce9190610da7565b60405180910390f35b3480156100e357600080fd5b506100ec61034f565b6040516100f99190610de2565b60405180910390f35b34801561010e57600080fd5b50610117610355565b6040516101249190610fd7565b60405180910390f35b34801561013957600080fd5b50610154600480360381019061014f9190611039565b6104c1565b6040516101619190610de2565b60405180910390f35b34801561017657600080fd5b50610191600480360381019061018c919061119b565b6104d9565b005b34801561019f57600080fd5b506101a8610779565b6040516101b59190610da7565b60405180910390f35b3480156101ca57600080fd5b506101e560048036038101906101e09190611210565b610807565b005b6101ef610959565b005b3480156101fd57600080fd5b506102186004803603810190610213919061123d565b610b17565b604051610225919061128c565b60405180910390f35b34801561023a57600080fd5b50610243610cbe565b6040516102509190610de2565b60405180910390f35b34801561026557600080fd5b5061026e610cc8565b60405161027b9190610de2565b60405180910390f35b34801561029057600080fd5b506102ab60048036038101906102a69190611039565b610cce565b6040516102b89190610de2565b60405180910390f35b600280546102ce906112d6565b80601f01602080910402602001604051908101604052809291908181526020018280546102fa906112d6565b80156103475780601f1061031c57610100808354040283529160200191610347565b820191906000526020600020905b81548152906001019060200180831161032a57829003601f168201915b505050505081565b60005481565b60606007805480602002602001604051908101604052809291908181526020016000905b828210156104b857838290600052602060002090600402016040518060800160405290816000820160009054906101000a900473ffffffffffffffffffffffffffffffffffffffff1673ffffffffffffffffffffffffffffffffffffffff1673ffffffffffffffffffffffffffffffffffffffff168152602001600182018054610402906112d6565b80601f016020809104026020016040519081016040528092919081815260200182805461042e906112d6565b801561047b5780601f106104505761010080835404028352916020019161047b565b820191906000526020600020905b81548152906001019060200180831161045e57829003601f168201915b50505050508152602001600282015481526020016003820160009054906101000a900460ff16151515158152505081526020019060010190610379565b50505050905090565b60066020528060005260406000206000915090505481565b600460008154809291906104ec90611336565b91905055506000808260405160200161050591906113e0565b6040516020818303038152906040529050606460015442446105279190611406565b6105319190611406565b61053b9190611469565b6001819055507f2415c1e7df5e0c67b640ba9a06b6cd4e0e1769bf0c51c0bc0f04eb84125d7074338442604051610574939291906114a9565b60405180910390a1600a600154101561064857678ac7230489e80000600660003373ffffffffffffffffffffffffffffffffffffffff1673ffffffffffffffffffffffffffffffffffffffff16815260200190815260200160002060008282546105de9190611406565b92505081905550678ac7230489e800006000808282546105fe91906114e7565b92505081905550600191507ff70494b7572e1eaeaea5b544612651ccc80fd1b05e3f0026253ae98fb8d82fd833600160405161063b92919061151b565b60405180910390a1610687565b600091507ff70494b7572e1eaeaea5b544612651ccc80fd1b05e3f0026253ae98fb8d82fd833600060405161067e92919061151b565b60405180910390a15b600760405180608001604052803373ffffffffffffffffffffffffffffffffffffffff168152602001838152602001428152602001841515815250908060018154018082558091505060019003906000526020600020906004020160009091909190915060008201518160000160006101000a81548173ffffffffffffffffffffffffffffffffffffffff021916908373ffffffffffffffffffffffffffffffffffffffff160217905550602082015181600101908161074791906116f0565b506040820151816002015560608201518160030160006101000a81548160ff0219169083151502179055505050505050565b60038054610786906112d6565b80601f01602080910402602001604051908101604052809291908181526020018280546107b2906112d6565b80156107ff5780601f106107d4576101008083540402835291602001916107ff565b820191906000526020600020905b8154815290600101906020018083116107e257829003601f168201915b505050505081565b6000811161084a576040517f08c379a00000000000000000000000000000000000000000000000000000000081526004016108419061180e565b60405180910390fd5b670de0b6b3a76400008161085e919061182e565b600660003373ffffffffffffffffffffffffffffffffffffffff1673ffffffffffffffffffffffffffffffffffffffff16815260200190815260200160002060008282546108ac9190611406565b92505081905550670de0b6b3a7640000816108c7919061182e565b6000808282546108d791906114e7565b925050819055508060066000600560009054906101000a900473ffffffffffffffffffffffffffffffffffffffff1673ffffffffffffffffffffffffffffffffffffffff1673ffffffffffffffffffffffffffffffffffffffff168152602001908152602001600020600082825461094f91906114e7565b9250508190555050565b60003490506512309ce540008110156109a7576040517f08c379a000000000000000000000000000000000000000000000000000000000815260040161099e906118e2565b60405180910390fd5b60006509184e72a000826109bb9190611902565b9050678ac7230489e80000816109d1919061182e565b600660003373ffffffffffffffffffffffffffffffffffffffff1673ffffffffffffffffffffffffffffffffffffffff1681526020019081526020016000206000828254610a1f9190611406565b92505081905550678ac7230489e8000081610a3a919061182e565b600054610a4791906114e7565b600081905550678ac7230489e8000081610a61919061182e565b60066000600560009054906101000a900473ffffffffffffffffffffffffffffffffffffffff1673ffffffffffffffffffffffffffffffffffffffff1673ffffffffffffffffffffffffffffffffffffffff1681526020019081526020016000206000828254610ad191906114e7565b925050819055507fac60c63f10552ab7251fef86507213108176060f7d5f20af51d3aeda100b3f98338234604051610b0b93929190611933565b60405180910390a15050565b60008073ffffffffffffffffffffffffffffffffffffffff168373ffffffffffffffffffffffffffffffffffffffff1603610b87576040517f08c379a0000000000000000000000000000000000000000000000000000000008152600401610b7e906119b6565b60405180910390fd5b6000600660003373ffffffffffffffffffffffffffffffffffffffff1673ffffffffffffffffffffffffffffffffffffffff16815260200190815260200160002054905082811015610c0e576040517f08c379a0000000000000000000000000000000000000000000000000000000008152600401610c0590611a22565b60405180910390fd5b8281610c1a91906114e7565b600660003373ffffffffffffffffffffffffffffffffffffffff1673ffffffffffffffffffffffffffffffffffffffff1681526020019081526020016000208190555082600660008673ffffffffffffffffffffffffffffffffffffffff1673ffffffffffffffffffffffffffffffffffffffff1681526020019081526020016000206000828254610cac9190611406565b92505081905550600191505092915050565b6000600454905090565b60045481565b6000600660008373ffffffffffffffffffffffffffffffffffffffff1673ffffffffffffffffffffffffffffffffffffffff168152602001908152602001600020549050919050565b600081519050919050565b600082825260208201905092915050565b60005b83811015610d51578082015181840152602081019050610d36565b60008484015250505050565b6000601f19601f8301169050919050565b6000610d7982610d17565b610d838185610d22565b9350610d93818560208601610d33565b610d9c81610d5d565b840191505092915050565b60006020820190508181036000830152610dc18184610d6e565b905092915050565b6000819050919050565b610ddc81610dc9565b82525050565b6000602082019050610df76000830184610dd3565b92915050565b600081519050919050565b600082825260208201905092915050565b6000819050602082019050919050565b600073ffffffffffffffffffffffffffffffffffffffff82169050919050565b6000610e5482610e29565b9050919050565b610e6481610e49565b82525050565b600082825260208201905092915050565b6000610e8682610d17565b610e908185610e6a565b9350610ea0818560208601610d33565b610ea981610d5d565b840191505092915050565b610ebd81610dc9565b82525050565b60008115159050919050565b610ed881610ec3565b82525050565b6000608083016000830151610ef66000860182610e5b565b5060208301518482036020860152610f0e8282610e7b565b9150506040830151610f236040860182610eb4565b506060830151610f366060860182610ecf565b508091505092915050565b6000610f4d8383610ede565b905092915050565b6000602082019050919050565b6000610f6d82610dfd565b610f778185610e08565b935083602082028501610f8985610e19565b8060005b85811015610fc55784840389528151610fa68582610f41565b9450610fb183610f55565b925060208a01995050600181019050610f8d565b50829750879550505050505092915050565b60006020820190508181036000830152610ff18184610f62565b905092915050565b6000604051905090565b600080fd5b600080fd5b61101681610e49565b811461102157600080fd5b50565b6000813590506110338161100d565b92915050565b60006020828403121561104f5761104e611003565b5b600061105d84828501611024565b91505092915050565b600080fd5b600080fd5b7f4e487b7100000000000000000000000000000000000000000000000000000000600052604160045260246000fd5b6110a882610d5d565b810181811067ffffffffffffffff821117156110c7576110c6611070565b5b80604052505050565b60006110da610ff9565b90506110e6828261109f565b919050565b600067ffffffffffffffff82111561110657611105611070565b5b61110f82610d5d565b9050602081019050919050565b82818337600083830152505050565b600061113e611139846110eb565b6110d0565b90508281526020810184848401111561115a5761115961106b565b5b61116584828561111c565b509392505050565b600082601f83011261118257611181611066565b5b813561119284826020860161112b565b91505092915050565b6000602082840312156111b1576111b0611003565b5b600082013567ffffffffffffffff8111156111cf576111ce611008565b5b6111db8482850161116d565b91505092915050565b6111ed81610dc9565b81146111f857600080fd5b50565b60008135905061120a816111e4565b92915050565b60006020828403121561122657611225611003565b5b6000611234848285016111fb565b91505092915050565b6000806040838503121561125457611253611003565b5b600061126285828601611024565b9250506020611273858286016111fb565b9150509250929050565b61128681610ec3565b82525050565b60006020820190506112a1600083018461127d565b92915050565b7f4e487b7100000000000000000000000000000000000000000000000000000000600052602260045260246000fd5b600060028204905060018216806112ee57607f821691505b602082108103611301576113006112a7565b5b50919050565b7f4e487b7100000000000000000000000000000000000000000000000000000000600052601160045260246000fd5b600061134182610dc9565b91507fffffffffffffffffffffffffffffffffffffffffffffffffffffffffffffffff820361137357611372611307565b5b600182019050919050565b7f48656c6c6f3a2000000000000000000000000000000000000000000000000000815250565b600081905092915050565b60006113ba82610d17565b6113c481856113a4565b93506113d4818560208601610d33565b80840191505092915050565b60006113eb8261137e565b6007820191506113fb82846113af565b915081905092915050565b600061141182610dc9565b915061141c83610dc9565b925082820190508082111561143457611433611307565b5b92915050565b7f4e487b7100000000000000000000000000000000000000000000000000000000600052601260045260246000fd5b600061147482610dc9565b915061147f83610dc9565b92508261148f5761148e61143a565b5b828206905092915050565b6114a381610e49565b82525050565b60006060820190506114be600083018661149a565b81810360208301526114d08185610d6e565b90506114df6040830184610dd3565b949350505050565b60006114f282610dc9565b91506114fd83610dc9565b925082820390508181111561151557611514611307565b5b92915050565b6000604082019050611530600083018561149a565b61153d602083018461127d565b9392505050565b60008190508160005260206000209050919050565b60006020601f8301049050919050565b600082821b905092915050565b6000600883026115a67fffffffffffffffffffffffffffffffffffffffffffffffffffffffffffffffff82611569565b6115b08683611569565b95508019841693508086168417925050509392505050565b6000819050919050565b60006115ed6115e86115e384610dc9565b6115c8565b610dc9565b9050919050565b6000819050919050565b611607836115d2565b61161b611613826115f4565b848454611576565b825550505050565b600090565b611630611623565b61163b8184846115fe565b505050565b5b8181101561165f57611654600082611628565b600181019050611641565b5050565b601f8211156116a45761167581611544565b61167e84611559565b8101602085101561168d578190505b6116a161169985611559565b830182611640565b50505b505050565b600082821c905092915050565b60006116c7600019846008026116a9565b1980831691505092915050565b60006116e083836116b6565b9150826002028217905092915050565b6116f982610d17565b67ffffffffffffffff81111561171257611711611070565b5b61171c82546112d6565b611727828285611663565b600060209050601f83116001811461175a5760008415611748578287015190505b61175285826116d4565b8655506117ba565b601f19841661176886611544565b60005b828110156117905784890151825560018201915060208501945060208101905061176b565b868310156117ad57848901516117a9601f8916826116b6565b8355505b6001600288020188555050505b505050505050565b7f4d757374206e6f74206265207a65726f00000000000000000000000000000000600082015250565b60006117f8601083610d22565b9150611803826117c2565b602082019050919050565b60006020820190508181036000830152611827816117eb565b9050919050565b600061183982610dc9565b915061184483610dc9565b925082820261185281610dc9565b9150828204841483151761186957611868611307565b5b5092915050565b7f42757920546f6b656e204661696c65643a204d696e696d756d20416d6f756e7460008201527f20697320302e3030303032204554480000000000000000000000000000000000602082015250565b60006118cc602f83610d22565b91506118d782611870565b604082019050919050565b600060208201905081810360008301526118fb816118bf565b9050919050565b600061190d82610dc9565b915061191883610dc9565b9250826119285761192761143a565b5b828204905092915050565b6000606082019050611948600083018661149a565b6119556020830185610dd3565b6119626040830184610dd3565b949350505050565b7f4552433230204552523a20466f756e64205a65726f2041646472657373000000600082015250565b60006119a0601d83610d22565b91506119ab8261196a565b602082019050919050565b600060208201905081810360008301526119cf81611993565b9050919050565b7f4552433230204552523a204e6f7420456e6f7567682042616c616e6365000000600082015250565b6000611a0c601d83610d22565b9150611a17826119d6565b602082019050919050565b60006020820190508181036000830152611a3b816119ff565b905091905056fea2646970667358221220499ef44b3c0183d074af8eff59be23b594763389eaa889baff7497ef7e3d05ed64736f6c63430008110033",
  "linkReferences": {},
  "deployedLinkReferences": {}
}