{
    "_format": "hh-sol-artifact-1",
    "contractName": "WebsiteContract",
    "sourceName": "contracts/WebsiteContract.sol",
    "abi": [
        {
            "inputs": [
                {
                    "internalType": "string",
                    "name": "_name",
                    "type": "string"
                },
                {
                    "internalType": "string",
                    "name": "_symbol",
                    "type": "string"
                }
            ],
            "stateMutability": "nonpayable",
            "type": "constructor"
        },
        {
            "anonymous": false,
            "inputs": [
                {
                    "indexed": false,
                    "internalType": "address",
                    "name": "buyer",
                    "type": "address"
                },
                {
                    "indexed": false,
                    "internalType": "uint256",
                    "name": "tokenReceived",
                    "type": "uint256"
                },
                {
                    "indexed": false,
                    "internalType": "uint256",
                    "name": "ethersSent",
                    "type": "uint256"
                }
            ],
            "name": "SomebodyBuy",
            "type": "event"
        },
        {
            "anonymous": false,
            "inputs": [
                {
                    "indexed": false,
                    "internalType": "address",
                    "name": "sender",
                    "type": "address"
                },
                {
                    "indexed": false,
                    "internalType": "string",
                    "name": "message",
                    "type": "string"
                },
                {
                    "indexed": false,
                    "internalType": "uint256",
                    "name": "timestamp",
                    "type": "uint256"
                }
            ],
            "name": "SomebodySayHello",
            "type": "event"
        },
        {
            "inputs": [
                {
                    "internalType": "address",
                    "name": "",
                    "type": "address"
                }
            ],
            "name": "balanceOf",
            "outputs": [
                {
                    "internalType": "uint256",
                    "name": "",
                    "type": "uint256"
                }
            ],
            "stateMutability": "view",
            "type": "function"
        },
        {
            "inputs": [],
            "name": "buyToken",
            "outputs": [],
            "stateMutability": "payable",
            "type": "function"
        },
        {
            "inputs": [],
            "name": "getAllHello",
            "outputs": [
                {
                    "components": [
                        {
                            "internalType": "address",
                            "name": "sender",
                            "type": "address"
                        },
                        {
                            "internalType": "string",
                            "name": "message",
                            "type": "string"
                        },
                        {
                            "internalType": "uint256",
                            "name": "timestamp",
                            "type": "uint256"
                        }
                    ],
                    "internalType": "struct WebsiteContract.Hello[]",
                    "name": "",
                    "type": "tuple[]"
                }
            ],
            "stateMutability": "view",
            "type": "function"
        },
        {
            "inputs": [],
            "name": "getHelloTotal",
            "outputs": [
                {
                    "internalType": "uint256",
                    "name": "",
                    "type": "uint256"
                }
            ],
            "stateMutability": "view",
            "type": "function"
        },
        {
            "inputs": [],
            "name": "name",
            "outputs": [
                {
                    "internalType": "string",
                    "name": "",
                    "type": "string"
                }
            ],
            "stateMutability": "view",
            "type": "function"
        },
        {
            "inputs": [
                {
                    "internalType": "string",
                    "name": "message",
                    "type": "string"
                }
            ],
            "name": "sendHello",
            "outputs": [],
            "stateMutability": "nonpayable",
            "type": "function"
        },
        {
            "inputs": [],
            "name": "symbol",
            "outputs": [
                {
                    "internalType": "string",
                    "name": "",
                    "type": "string"
                }
            ],
            "stateMutability": "view",
            "type": "function"
        },
        {
            "inputs": [],
            "name": "totalHello",
            "outputs": [
                {
                    "internalType": "uint256",
                    "name": "",
                    "type": "uint256"
                }
            ],
            "stateMutability": "view",
            "type": "function"
        },
        {
            "inputs": [],
            "name": "totalSupply",
            "outputs": [
                {
                    "internalType": "uint256",
                    "name": "",
                    "type": "uint256"
                }
            ],
            "stateMutability": "view",
            "type": "function"
        },
        {
            "inputs": [
                {
                    "internalType": "address",
                    "name": "recipient",
                    "type": "address"
                },
                {
                    "internalType": "uint256",
                    "name": "amount",
                    "type": "uint256"
                }
            ],
            "name": "transfer",
            "outputs": [
                {
                    "internalType": "bool",
                    "name": "",
                    "type": "bool"
                }
            ],
            "stateMutability": "nonpayable",
            "type": "function"
        },
        {
            "inputs": [
                {
                    "internalType": "address",
                    "name": "caller",
                    "type": "address"
                }
            ],
            "name": "viewTokenFromAddress",
            "outputs": [
                {
                    "internalType": "uint256",
                    "name": "",
                    "type": "uint256"
                }
            ],
            "stateMutability": "view",
            "type": "function"
        }
    ],
    "bytecode": "0x60806040523480156200001157600080fd5b5060405162001d2138038062001d218339818101604052810190620000379190620002fa565b8160019081620000489190620005ca565b5080600290816200005a9190620005ca565b50620000773369d3c21bcecceda10000006200007f60201b60201c565b50506200079e565b600073ffffffffffffffffffffffffffffffffffffffff168273ffffffffffffffffffffffffffffffffffffffff1603620000f1576040517f08c379a0000000000000000000000000000000000000000000000000000000008152600401620000e89062000712565b60405180910390fd5b8060008082825462000104919062000763565b9250508190555080600460008473ffffffffffffffffffffffffffffffffffffffff1673ffffffffffffffffffffffffffffffffffffffff16815260200190815260200160002060008282546200015c919062000763565b925050819055505050565b6000604051905090565b600080fd5b600080fd5b600080fd5b600080fd5b6000601f19601f8301169050919050565b7f4e487b7100000000000000000000000000000000000000000000000000000000600052604160045260246000fd5b620001d08262000185565b810181811067ffffffffffffffff82111715620001f257620001f162000196565b5b80604052505050565b60006200020762000167565b9050620002158282620001c5565b919050565b600067ffffffffffffffff82111562000238576200023762000196565b5b620002438262000185565b9050602081019050919050565b60005b838110156200027057808201518184015260208101905062000253565b60008484015250505050565b6000620002936200028d846200021a565b620001fb565b905082815260208101848484011115620002b257620002b162000180565b5b620002bf84828562000250565b509392505050565b600082601f830112620002df57620002de6200017b565b5b8151620002f18482602086016200027c565b91505092915050565b6000806040838503121562000314576200031362000171565b5b600083015167ffffffffffffffff81111562000335576200033462000176565b5b6200034385828601620002c7565b925050602083015167ffffffffffffffff81111562000367576200036662000176565b5b6200037585828601620002c7565b9150509250929050565b600081519050919050565b7f4e487b7100000000000000000000000000000000000000000000000000000000600052602260045260246000fd5b60006002820490506001821680620003d257607f821691505b602082108103620003e857620003e76200038a565b5b50919050565b60008190508160005260206000209050919050565b60006020601f8301049050919050565b600082821b905092915050565b600060088302620004527fffffffffffffffffffffffffffffffffffffffffffffffffffffffffffffffff8262000413565b6200045e868362000413565b95508019841693508086168417925050509392505050565b6000819050919050565b6000819050919050565b6000620004ab620004a56200049f8462000476565b62000480565b62000476565b9050919050565b6000819050919050565b620004c7836200048a565b620004df620004d682620004b2565b84845462000420565b825550505050565b600090565b620004f6620004e7565b62000503818484620004bc565b505050565b5b818110156200052b576200051f600082620004ec565b60018101905062000509565b5050565b601f8211156200057a576200054481620003ee565b6200054f8462000403565b810160208510156200055f578190505b620005776200056e8562000403565b83018262000508565b50505b505050565b600082821c905092915050565b60006200059f600019846008026200057f565b1980831691505092915050565b6000620005ba83836200058c565b9150826002028217905092915050565b620005d5826200037f565b67ffffffffffffffff811115620005f157620005f062000196565b5b620005fd8254620003b9565b6200060a8282856200052f565b600060209050601f8311600181146200064257600084156200062d578287015190505b620006398582620005ac565b865550620006a9565b601f1984166200065286620003ee565b60005b828110156200067c5784890151825560018201915060208501945060208101905062000655565b868310156200069c578489015162000698601f8916826200058c565b8355505b6001600288020188555050505b505050505050565b600082825260208201905092915050565b7f4552433230204552523a204e6f204164647265737320466f756e640000000000600082015250565b6000620006fa601b83620006b1565b91506200070782620006c2565b602082019050919050565b600060208201905081810360008301526200072d81620006eb565b9050919050565b7f4e487b7100000000000000000000000000000000000000000000000000000000600052601160045260246000fd5b6000620007708262000476565b91506200077d8362000476565b925082820190508082111562000798576200079762000734565b5b92915050565b61157380620007ae6000396000f3fe60806040526004361061009c5760003560e01c806395d89b411161006457806395d89b4114610188578063a4821719146101b3578063a9059cbb146101bd578063eb59895d146101fa578063f380badf14610225578063f9ad6bef146102505761009c565b806306fdde03146100a157806318160ddd146100cc578063379b368e146100f757806370a082311461012257806391a8983e1461015f575b600080fd5b3480156100ad57600080fd5b506100b661028d565b6040516100c391906109f9565b60405180910390f35b3480156100d857600080fd5b506100e161031b565b6040516100ee9190610a34565b60405180910390f35b34801561010357600080fd5b5061010c610321565b6040516101199190610bfb565b60405180910390f35b34801561012e57600080fd5b5061014960048036038101906101449190610c5d565b610472565b6040516101569190610a34565b60405180910390f35b34801561016b57600080fd5b5061018660048036038101906101819190610dbf565b61048a565b005b34801561019457600080fd5b5061019d6105ca565b6040516101aa91906109f9565b60405180910390f35b6101bb610658565b005b3480156101c957600080fd5b506101e460048036038101906101df9190610e34565b610769565b6040516101f19190610e8f565b60405180910390f35b34801561020657600080fd5b5061020f610910565b60405161021c9190610a34565b60405180910390f35b34801561023157600080fd5b5061023a61091a565b6040516102479190610a34565b60405180910390f35b34801561025c57600080fd5b5061027760048036038101906102729190610c5d565b610920565b6040516102849190610a34565b60405180910390f35b6001805461029a90610ed9565b80601f01602080910402602001604051908101604052809291908181526020018280546102c690610ed9565b80156103135780601f106102e857610100808354040283529160200191610313565b820191906000526020600020905b8154815290600101906020018083116102f657829003601f168201915b505050505081565b60005481565b60606005805480602002602001604051908101604052809291908181526020016000905b8282101561046957838290600052602060002090600302016040518060600160405290816000820160009054906101000a900473ffffffffffffffffffffffffffffffffffffffff1673ffffffffffffffffffffffffffffffffffffffff1673ffffffffffffffffffffffffffffffffffffffff1681526020016001820180546103ce90610ed9565b80601f01602080910402602001604051908101604052809291908181526020018280546103fa90610ed9565b80156104475780601f1061041c57610100808354040283529160200191610447565b820191906000526020600020905b81548152906001019060200180831161042a57829003601f168201915b5050505050815260200160028201548152505081526020019060010190610345565b50505050905090565b60046020528060005260406000206000915090505481565b6003600081548092919061049d90610f39565b91905055506000816040516020016104b59190610fe3565b6040516020818303038152906040529050600560405180606001604052803373ffffffffffffffffffffffffffffffffffffffff16815260200183815260200142815250908060018154018082558091505060019003906000526020600020906003020160009091909190915060008201518160000160006101000a81548173ffffffffffffffffffffffffffffffffffffffff021916908373ffffffffffffffffffffffffffffffffffffffff160217905550602082015181600101908161057e91906111b5565b506040820151816002015550507f2415c1e7df5e0c67b640ba9a06b6cd4e0e1769bf0c51c0bc0f04eb84125d70743383426040516105be93929190611296565b60405180910390a15050565b600280546105d790610ed9565b80601f016020809104026020016040519081016040528092919081815260200182805461060390610ed9565b80156106505780601f1061062557610100808354040283529160200191610650565b820191906000526020600020905b81548152906001019060200180831161063357829003601f168201915b505050505081565b60003490506512309ce540008110156106a6576040517f08c379a000000000000000000000000000000000000000000000000000000000815260040161069d90611346565b60405180910390fd5b60006512309ce54000826106ba9190611395565b905080600460003373ffffffffffffffffffffffffffffffffffffffff1673ffffffffffffffffffffffffffffffffffffffff168152602001908152602001600020600082825461070b91906113c6565b925050819055508060008082825461072391906113fa565b925050819055507fac60c63f10552ab7251fef86507213108176060f7d5f20af51d3aeda100b3f9833823460405161075d9392919061142e565b60405180910390a15050565b60008073ffffffffffffffffffffffffffffffffffffffff168373ffffffffffffffffffffffffffffffffffffffff16036107d9576040517f08c379a00000000000000000000000000000000000000000000000000000000081526004016107d0906114b1565b60405180910390fd5b6000600460003373ffffffffffffffffffffffffffffffffffffffff1673ffffffffffffffffffffffffffffffffffffffff16815260200190815260200160002054905082811015610860576040517f08c379a00000000000000000000000000000000000000000000000000000000081526004016108579061151d565b60405180910390fd5b828161086c91906113fa565b600460003373ffffffffffffffffffffffffffffffffffffffff1673ffffffffffffffffffffffffffffffffffffffff1681526020019081526020016000208190555082600460008673ffffffffffffffffffffffffffffffffffffffff1673ffffffffffffffffffffffffffffffffffffffff16815260200190815260200160002060008282546108fe91906113c6565b92505081905550600191505092915050565b6000600354905090565b60035481565b6000600460008373ffffffffffffffffffffffffffffffffffffffff1673ffffffffffffffffffffffffffffffffffffffff168152602001908152602001600020549050919050565b600081519050919050565b600082825260208201905092915050565b60005b838110156109a3578082015181840152602081019050610988565b60008484015250505050565b6000601f19601f8301169050919050565b60006109cb82610969565b6109d58185610974565b93506109e5818560208601610985565b6109ee816109af565b840191505092915050565b60006020820190508181036000830152610a1381846109c0565b905092915050565b6000819050919050565b610a2e81610a1b565b82525050565b6000602082019050610a496000830184610a25565b92915050565b600081519050919050565b600082825260208201905092915050565b6000819050602082019050919050565b600073ffffffffffffffffffffffffffffffffffffffff82169050919050565b6000610aa682610a7b565b9050919050565b610ab681610a9b565b82525050565b600082825260208201905092915050565b6000610ad882610969565b610ae28185610abc565b9350610af2818560208601610985565b610afb816109af565b840191505092915050565b610b0f81610a1b565b82525050565b6000606083016000830151610b2d6000860182610aad565b5060208301518482036020860152610b458282610acd565b9150506040830151610b5a6040860182610b06565b508091505092915050565b6000610b718383610b15565b905092915050565b6000602082019050919050565b6000610b9182610a4f565b610b9b8185610a5a565b935083602082028501610bad85610a6b565b8060005b85811015610be95784840389528151610bca8582610b65565b9450610bd583610b79565b925060208a01995050600181019050610bb1565b50829750879550505050505092915050565b60006020820190508181036000830152610c158184610b86565b905092915050565b6000604051905090565b600080fd5b600080fd5b610c3a81610a9b565b8114610c4557600080fd5b50565b600081359050610c5781610c31565b92915050565b600060208284031215610c7357610c72610c27565b5b6000610c8184828501610c48565b91505092915050565b600080fd5b600080fd5b7f4e487b7100000000000000000000000000000000000000000000000000000000600052604160045260246000fd5b610ccc826109af565b810181811067ffffffffffffffff82111715610ceb57610cea610c94565b5b80604052505050565b6000610cfe610c1d565b9050610d0a8282610cc3565b919050565b600067ffffffffffffffff821115610d2a57610d29610c94565b5b610d33826109af565b9050602081019050919050565b82818337600083830152505050565b6000610d62610d5d84610d0f565b610cf4565b905082815260208101848484011115610d7e57610d7d610c8f565b5b610d89848285610d40565b509392505050565b600082601f830112610da657610da5610c8a565b5b8135610db6848260208601610d4f565b91505092915050565b600060208284031215610dd557610dd4610c27565b5b600082013567ffffffffffffffff811115610df357610df2610c2c565b5b610dff84828501610d91565b91505092915050565b610e1181610a1b565b8114610e1c57600080fd5b50565b600081359050610e2e81610e08565b92915050565b60008060408385031215610e4b57610e4a610c27565b5b6000610e5985828601610c48565b9250506020610e6a85828601610e1f565b9150509250929050565b60008115159050919050565b610e8981610e74565b82525050565b6000602082019050610ea46000830184610e80565b92915050565b7f4e487b7100000000000000000000000000000000000000000000000000000000600052602260045260246000fd5b60006002820490506001821680610ef157607f821691505b602082108103610f0457610f03610eaa565b5b50919050565b7f4e487b7100000000000000000000000000000000000000000000000000000000600052601160045260246000fd5b6000610f4482610a1b565b91507fffffffffffffffffffffffffffffffffffffffffffffffffffffffffffffffff8203610f7657610f75610f0a565b5b600182019050919050565b7f48656c6c6f3a2000000000000000000000000000000000000000000000000000815250565b600081905092915050565b6000610fbd82610969565b610fc78185610fa7565b9350610fd7818560208601610985565b80840191505092915050565b6000610fee82610f81565b600782019150610ffe8284610fb2565b915081905092915050565b60008190508160005260206000209050919050565b60006020601f8301049050919050565b600082821b905092915050565b60006008830261106b7fffffffffffffffffffffffffffffffffffffffffffffffffffffffffffffffff8261102e565b611075868361102e565b95508019841693508086168417925050509392505050565b6000819050919050565b60006110b26110ad6110a884610a1b565b61108d565b610a1b565b9050919050565b6000819050919050565b6110cc83611097565b6110e06110d8826110b9565b84845461103b565b825550505050565b600090565b6110f56110e8565b6111008184846110c3565b505050565b5b81811015611124576111196000826110ed565b600181019050611106565b5050565b601f8211156111695761113a81611009565b6111438461101e565b81016020851015611152578190505b61116661115e8561101e565b830182611105565b50505b505050565b600082821c905092915050565b600061118c6000198460080261116e565b1980831691505092915050565b60006111a5838361117b565b9150826002028217905092915050565b6111be82610969565b67ffffffffffffffff8111156111d7576111d6610c94565b5b6111e18254610ed9565b6111ec828285611128565b600060209050601f83116001811461121f576000841561120d578287015190505b6112178582611199565b86555061127f565b601f19841661122d86611009565b60005b8281101561125557848901518255600182019150602085019450602081019050611230565b86831015611272578489015161126e601f89168261117b565b8355505b6001600288020188555050505b505050505050565b61129081610a9b565b82525050565b60006060820190506112ab6000830186611287565b81810360208301526112bd81856109c0565b90506112cc6040830184610a25565b949350505050565b7f42757920546f6b656e204661696c65643a204d696e696d756d20416d6f756e7460008201527f20697320302e3030303032204554480000000000000000000000000000000000602082015250565b6000611330602f83610974565b915061133b826112d4565b604082019050919050565b6000602082019050818103600083015261135f81611323565b9050919050565b7f4e487b7100000000000000000000000000000000000000000000000000000000600052601260045260246000fd5b60006113a082610a1b565b91506113ab83610a1b565b9250826113bb576113ba611366565b5b828204905092915050565b60006113d182610a1b565b91506113dc83610a1b565b92508282019050808211156113f4576113f3610f0a565b5b92915050565b600061140582610a1b565b915061141083610a1b565b925082820390508181111561142857611427610f0a565b5b92915050565b60006060820190506114436000830186611287565b6114506020830185610a25565b61145d6040830184610a25565b949350505050565b7f4552433230204552523a20466f756e64205a65726f2041646472657373000000600082015250565b600061149b601d83610974565b91506114a682611465565b602082019050919050565b600060208201905081810360008301526114ca8161148e565b9050919050565b7f4552433230204552523a204e6f7420456e6f7567682042616c616e6365000000600082015250565b6000611507601d83610974565b9150611512826114d1565b602082019050919050565b60006020820190508181036000830152611536816114fa565b905091905056fea2646970667358221220544f465c4f9ddb2b235d1e5151fa11ac43c35e960a6e85d77c6c457df7fdce8364736f6c63430008110033",
    "linkReferences": {},
    "deployedLinkReferences": {}
}